:020000040800F2
:100000006837002045010008191E00081B1E000863
:100010001F1E0008231E0008271E00080000000005
:100020000000000000000000000000002B1E00087F
:100030002D1E0008000000002F1E0008311E0008C1
:100040005F0100085F0100085F0100085F01000810
:100050005F0100085F0100085F0100085F01000800
:100060005F0100085F0100085F0100085F010008F0
:100070005F0100085F0100085F0100085F010008E0
:100080005F0100085F0100085F0100085F010008D0
:100090005F0100085F0100085F0100085F010008C0
:1000A0005F0100085F0100085F0100085F010008B0
:1000B000ED280008072900085F0100085F0100081B
:1000C0005F0100085F0100085F0100085F01000890
:1000D0005F010008FF2500081926000863260008B4
:1000E0005F0100085F0100085F0100085F01000870
:1000F0005F0100085F0100085F0100085F01000860
:100100005F0100085F0100085F0100085F0100084F
:100110005F0100085F0100085F0100085F0100083F
:100120005F0100085F0100085F0100085F0100082F
:10013000DFF80CD009F076FB00480047891D000865
:10014000683700200648804706480047FEE7FEE77C
:10015000FEE7FEE7FEE7FEE7FEE7FEE7FEE7FEE777
:1001600047020008310100080CB500200190009002
:100170006C48006840F480306A49086000BF6948F4
:10018000006800F4003000900198401C0190009835
:1001900018B90198B0F5A06FF1D16248006800F479
:1001A000003010B10120009001E000200090009884
:1001B000012843D15C48006840F010005A490860AB
:1001C0000846006820F0030008600846006840F018
:1001D0000200086053484068524948600846406839
:1001E00048600846406840F48060486008464068BF
:1001F00020F47C1048600846406840F4E8104860ED
:100200000846006840F08070086000BF45480068FC
:1002100000F000700028F9D04248406820F0030048
:10022000404948600846406840F00200486000BF0E
:100230003C48406800F00C000828F9D10CBD10B50E
:10024000FFF792FF10BD10B53648006840F001007E
:1002500034490860084640683449084031494860DC
:1002600008460068324908402E4908600846006880
:1002700020F4802008600846406820F4FE004860B2
:100280004FF41F008860FFF7DAFF4FF00060294944
:10029000086010BD10B5002100200022214B5B68D2
:1002A00003F00C0121B1042906D0082928D107E068
:1002B000214B224C236027E01F4B204C236023E07E
:1002C000184B5B6803F47010164B5B6803F48032C4
:1002D000022303EB904022B9194B4343174C236090
:1002E0000DE0104B5B6803F4003323B1144B434320
:1002F000124C236003E0104B4343104C236003E097
:100300000D4B0E4C236000BF00BF064B5B68C3F370
:1003100003130C4CE15C094B1B68CB40074C23607A
:1003200010BD000000100240002002400000FFF855
:10033000FFFFF6FE08ED00E000127A00000000204A
:1003400000093D000400002031490143314A116099
:10035000704770B5002100230F22C47804B32D4CE0
:10036000246804F4E064C4F5E064210AC1F10403E4
:10037000CA40447804FA03F1847814402143090107
:10038000254C0678A155047804F01F050124AC40E3
:1003900005786D11AD0005F1E025C5F8004109E0D3
:1003A000047804F01F050124AC401C4D067876113A
:1003B00045F8264070BD1A4A0A400243154B1B1FE0
:1003C0001A60704739B1134A121D12680243114B6B
:1003D0001B1D1A6006E00F4A121D126882430D4B66
:1003E0001B1D1A607047042808D14FF0E0210969ED
:1003F00041F004014FF0E022116107E04FF0E021ED
:10040000096921F004014FF0E022116170470000FA
:100410000000FA050CED00E000E400E080E100E0FF
:1004200080FFFF1F10B50446CC48844208D101214B
:10043000042000F04DFB0021042000F049FB46E0C1
:10044000C748844208D10121082000F041FB002167
:10045000082000F03DFB3AE0C248844208D1012167
:10046000102000F035FB0021102000F031FB2EE0C1
:10047000BD48844208D10121202000F029FB002141
:10048000202000F025FB22E0B848844208D1012159
:10049000402000F01DFB0021402000F019FB16E079
:1004A000B348844208D10121802000F011FB0021D3
:1004B000802000F00DFB0AE0AE48844207D1012104
:1004C000801500F005FB0021A01500F001FB10BD18
:1004D00010B50121084600F0FBFA0021012000F0D0
:1004E000F7FA10BD2DE9F041024600250026002054
:1004F00000230024002791F803C00CF00F0591F8A9
:1005000003C00CF0100CBCF1000F03D091F802C036
:100510004CEA050591F800C0BCF1000F31D0146819
:1005200000202BE04FF0010C0CFA00F3B1F800C0F2
:100530000CEA03069E4220D183004FF00F0C0CFA08
:1005400003F7BC4305FA03FC4CEA040491F803C02A
:10055000BCF1280F06D14FF0010C0CFA00FCC2F8D8
:1005600014C00AE091F803C0BCF1480F05D14FF068
:10057000010C0CFA00FCC2F810C0401C0828D1D3B2
:100580001460B1F800C0BCF1FF0F34DD54680020E6
:100590002EE000F1080C4FF0010808FA0CF3B1F856
:1005A00000C00CEA03069E4221D183004FF00F0CDD
:1005B0000CFA03F7BC4305FA03FC4CEA040491F877
:1005C00003C0BCF1280F05D100F1080C08FA0CF8A3
:1005D000C2F8148091F803C0BCF1480F07D100F1B4
:1005E000080C4FF0010808FA0CF8C2F81080401C03
:1005F0000828CED35460BDE8F0814FF6FF7101802A
:10060000022181700421C170704702460020936866
:100610000B400BB1012000E00020704701468868C4
:1006200080B2704702460020D3680B400BB1012016
:1006300000E0002070470146C86880B27047016141
:100640007047416170470AB1016100E04161704744
:10065000C16070474FF480320A43826181618261D8
:1006600082698269704702460020434B18684FF642
:100670008073184040EA021008433F4B18607047EF
:100680003E49C8617047F0B50A46002300240021A6
:10069000002500F00046B6F1004F02D1364EF16958
:1006A00001E0354E7168C0F3034583B200F4401693
:1006B000B6F5401F08D121F070612F4E766826F004
:1006C00070662D4F7E6012E000F48016B6F5801F34
:1006D00006D1032606FA05F4A14341F0706106E055
:1006E000460D360103FA06F6B14341F0706122B1BE
:1006F000460D360103FA06F6314300F00046B6F126
:10070000004F02D11C4EF16101E01B4E7160F0BD43
:1007100030B500228B071C0F0F2303FA04F2164B8F
:1007200008338C1053F824309343134C08348D1045
:1007300044F8253023468C1053F824308C07240FBE
:1007400000FA04F423430C4C08348D1044F825308F
:1007500030BD0A49DC3108607047000000080140E4
:10076000000C01400010014000140140001801403D
:10077000001C014000200140000001400000204218
:100780000E49086070470D49486070470B49886002
:1007900070474AF6AA200949086070474CF6CC40D9
:1007A00006490860704701460020044AD2680A40A2
:1007B0000AB1012000E00020704700000030004036
:1007C000DF48006840F00100DD49086008464068E5
:1007D000DC490840DA49486008460068DA490840C0
:1007E000D74908600846006820F480200860084661
:1007F000406820F4FE0048604FF41F008860704796
:10080000CF49096821F48031CD4A11601146096849
:1008100021F480211160B0F5803F03D0B0F5802F26
:100820000ED106E0C649096841F48031C44A11601E
:1008300007E0C349096841F4A021C14A116000E002
:1008400000BF00BF704710B5014600220023002002
:100850004A11012A02D1BA4C236806E0022A02D1C9
:10086000B74C236A01E0B64C636A01F01F02012411
:1008700094401C400CB1012000E0002010BD38B5B0
:10088000002000900024002500BF3120FFF7DBFF8F
:1008900005460098401C00900098B0F5A06F01D06C
:1008A000002DF2D03120FFF7CEFF08B1012400E087
:1008B0000024204638BD01460020A14A106820F0DF
:1008C000F80040EAC10010607047A0490860704716
:1008D000024600209A4B586820F47C1042EA01033B
:1008E0001843974B5860704798490866704701460F
:1008F0000020934A506820F003000843506070477E
:100900008F48406800F00C007047014600208C4A78
:10091000506820F0F0000843506070470146002006
:10092000874A506820F4E0600843506070470146F1
:100930000020834A506820F4605040EAC1005060B3
:10094000704729B17E4A527A02437D4B5A7204E0C5
:100950007B4A527A82437A4B5A7270477B49D8312C
:100960000860704701460020754A506820F44040F6
:100970000843506070470021714A20321170704A5C
:1009800082F82010012802D004280AD104E00121B5
:100990006B4A2032117005E00521694A203211703E
:1009A00000E000BF00BF70476949086070476449B4
:1009B000096A0143624A1162704765494439086017
:1009C000704730B500210022002400235C4D6D6883
:1009D00005F00C0121B1042905D0082923D105E037
:1009E0005C4D056022E05B4D05601FE0544D6D6875
:1009F00005F47012524D6D6805F48034022505EB44
:100A000092421CB9544D554305600BE04C4D6D6846
:100A100005F400351DB1504D5543056002E04D4DC4
:100A20005543056002E04B4D056000BF00BF444DDB
:100A30006D6805F0F0010909484D6B5C0568DD4003
:100A400045603F4D6D6805F4E061090A434D6B5CFC
:100A50004568DD4085603A4D6D6805F46051C90A0E
:100A60003E4D6B5C4568DD40C560354D6D6805F4F5
:100A70004041890B3A4D6B5CC568B5FBF3F50561E8
:100A800030BD29B12E4A526902432D4B5A6104E010
:100A90002B4A526982432A4B5A61704729B1284A2E
:100AA00092690243264B9A6104E0254A9269824387
:100AB000234B9A61704729B1214AD2690243204BE6
:100AC000DA6104E01E4AD26982431D4BDA61704745
:100AD00029B11B4AD2680243194BDA6004E0184A74
:100AE000D2688243164BDA60704729B1144A126902
:100AF0000243134B1A6104E0114A12698243104BFE
:100B00001A61704712494039086070470F49C8643C
:100B100070470B49C87170470948406A40F08070BF
:100B200007494862704701460020054A92680A401A
:100B30000AB1012000E00020704701498872704727
:100B4000001002400000FFF8FFFFF6FE00004242E6
:100B50008004424200127A0000093D001400002087
:100B60002400002010B50446FE48844208D101212B
:100B7000C014FFF7ADFF0021E014FFF7A9FFC4E0A8
:100B8000B4F1804F08D101210846FFF7AEFF0021E4
:100B90000120FFF7AAFFB8E0F348844208D1012101
:100BA0000220FFF7A2FF00210220FFF79EFFACE02A
:100BB000EE48844208D101210420FFF796FF00216E
:100BC0000420FFF792FFA0E0E948844208D1012108
:100BD0000820FFF78AFF00210820FFF786FF94E036
:100BE000E448844208D101211020FFF77EFF002154
:100BF0001020FFF77AFF88E0DF48844208D1012106
:100C00002020FFF772FF00212020FFF76EFF7CE01D
:100C1000DA48844208D101214014FFF759FF00212E
:100C20006014FFF755FF70E0D548844209D10121D7
:100C3000C804FFF74DFF00214FF40020FFF748FFE5
:100C400063E0D048844209D101210805FFF740FF45
:100C500000214FF48010FFF73BFF56E0CA48844262
:100C600009D101214805FFF733FF00214FF400109F
:100C7000FFF72EFF49E0C548844208D101214020FA
:100C8000FFF733FF00214020FFF72FFF3DE0C04872
:100C9000844208D101218020FFF727FF0021802016
:100CA000FFF723FF31E0BB48844208D101218015C2
:100CB000FFF71BFF0021A015FFF717FF25E0B6483F
:100CC000844209D101210804FFF702FF00214FF4FB
:100CD0008030FFF7FDFE18E0B048844209D10121C1
:100CE0004804FFF7F5FE00214FF40030FFF7F0FE57
:100CF0000BE0AB48844208D101218804FFF7E8FEED
:100D000000214FF48020FFF7E3FE10BD002202888F
:100D1000944B98420ED0994B98420BD0B0F1804F33
:100D200008D0914B984205D0904B984202D0904BFE
:100D3000984204D14FF68F731A404B881A438D4B5B
:100D4000984207D08C4B984204D04FF6FF431A408C
:100D5000CB881A4302808B8883850B880385814B5F
:100D600098420BD0854B984208D08B4B984205D0C7
:100D70008A4B984202D08A4B984201D10B7A038663
:100D800001238382704770B5002400220023058C64
:100D90004FF6FE7635400584028C8388048B4FF62F
:100DA0008F752C40B51E2C400D882C43751E2A4093
:100DB0000D892A434D882A436A4DA8420BD06F4DB6
:100DC000A84208D0744DA84205D0744DA84202D064
:100DD000734DA84213D14FF6F7752A404D892A4327
:100DE0004FF6FB752A408D882A434FF6FF652B404E
:100DF0004FF6FF552B408D892B43CD892B438380A4
:100E00000483CD888586028470BD70B500240022DD
:100E10000023058C4FF6EF7635400584028C8388DD
:100E2000048B48F6FF752C404FF6FF452C400D888B
:100E30004FF6FF7606EA05252C434FF6DF752A406C
:100E40000D8906EA05152A434D8806EA05152A4349
:100E5000444DA84202D0494DA8421DD14FF67F759E
:100E60002A404D894FF6FF7606EA05152A434FF6CC
:100E7000BF752A408D8806EA05152A434FF6FF35CF
:100E80002B404FF2FF752B408D8906EA85052B43D9
:100E9000CD8906EA85052B4383800483CD880587A9
:100EA000028470BD70B5002400220023058C4FF62B
:100EB000FF6635400584028C8388848B4FF68F75DE
:100EC0002C404FF6FC752C400D882C434FF6FF55F7
:100ED0002A400D894FF6FF7606EA05252A434D88FC
:100EE00006EA05252A431F4DA84202D0234DA842F9
:100EF0001DD14FF2FF752A404D894FF6FF7606EA65
:100F000005252A434FF6FF352A408D8806EA052538
:100F10002A434EF6FF752B404DF6FF752B408D8909
:100F200006EA05152B43CD8906EA05152B43838078
:100F30008483CD888587028470BD70B5002200232C
:100F40000024058C4EF6FF7635400584038C84889A
:100F5000828B48F6FF752A404FF6FF452A400D88E0
:100F600020E00000002C0140000400400008004088
:100F7000000C00400010004000140040003401400C
:100F8000004C014000500140005401400018004056
:100F9000001C00400020004000400140004401408F
:100FA000004801404FF6FF7606EA05252A434DF634
:100FB000FF752B400D8906EA05352B434D8806EA5F
:100FC00005352B43FA4DA84202D0FA4DA84208D16C
:100FD0004BF6FF752C408D894FF6FF7606EA851596
:100FE0002C4384808283CD88A0F84050038470BD58
:100FF000828B4FF2FF331A408283828B4FF6FF734E
:1010000003EA01231A4382837047F0B50C46154664
:10101000002200210026078C4EF6FF7C07EA0C0711
:101020000784828B018C4FF6FF7707EA043640F67F
:10103000FF473A404FF6FF7707EA05273A434FF656
:10104000FF7707EA03373A43D94FB8420ED0D94F5A
:10105000B8420BD0B0F1804F08D0D74FB84205D07E
:10106000D64FB84202D0D64FB84206D14DF6FF77E0
:10107000394046F48057394305E047F6FF57394079
:1010800044F48057394382830184F0BD828B4FF64C
:10109000F3731A408283828B0A4382837047F0B5D0
:1010A0000C461546002200210026078C4FF6FF6CE7
:1010B00007EA0C070784828B018C4FF6FF7707EA5B
:1010C00004264FF60C773A404FF6FF7707EA0317EE
:1010D0002F433A43B64FB8420ED0B64FB8420BD06A
:1010E000B0F1804F08D0B44FB84205D0B34FB842EA
:1010F00002D0B34FB84206D14FF6FF57394046F4FD
:101100008077394305E04FF2FF57394044F4807748
:10111000394382830184F0BD028B4FF2FF331A40C2
:101120000283028B4FF6FF7303EA01231A43028303
:101130007047F0B50C461546002200210026078CAA
:101140004FF6EF7C07EA0C070784028B018C4FF601
:10115000FF7707EA041640F6FF473A404FF6FF775D
:1011600007EA03373A434FF6FF7707EA05273A4382
:101170008F4FB8420ED08F4FB8420BD0B0F1804F96
:1011800008D08D4FB84205D08C4FB84202D08C4F5A
:10119000B84206D14FF6DF77394046F010073943A1
:1011A00005E04FF65F77394044F01007394302837A
:1011B0000184F0BD028B4FF6F3731A400283028B59
:1011C0000A4302837047F0B50C4615460022002101
:1011D000068C4FF6FE773E400684028B018C4FF65C
:1011E0000C7632407E1C06EA03162E433243704EC4
:1011F000B0420ED06F4EB0420BD0B0F1804F08D04D
:101200006D4EB04205D06D4EB04202D06C4EB04231
:1012100006D14FF6FD76314044F00106314305E03A
:101220004FF6F576314044F00106314302830184E4
:10123000F0BD70B505460C465D4885420ED05D4850
:1012400085420BD0B5F1804F08D05B48854205D070
:101250005A48854202D05A48854200D100E000BF7A
:10126000208850B92389A28861882846FFF7ABFF00
:10127000E1882846FFF79EFF25E0208804280AD150
:101280002389A28861882846FFF753FFE188284612
:10129000FFF742FF17E0208808280AD12389A28897
:1012A00061882846FFF7FBFEE1882846FFF7EEFE3F
:1012B00009E02389A28861882846FFF7A6FEE18815
:1012C0002846FFF795FE70BD2DE9F04105460C4616
:1012D00000260127608808B9022600E00026A088C1
:1012E000012801D1022700E001272088A0B9238925
:1012F000A28861882846FFF766FFE1882846FFF745
:1013000059FF23893A4631462846FFF712FFE18804
:101310002846FFF701FF13E02389A2886188284649
:10132000FFF707FFE1882846FFF7F6FE23893A46D4
:1013300031462846FFF747FFE1882846FFF73AFF86
:10134000BDE8F0810A884B881A438B881A43CB8802
:101350001A430B891A434B891A438B891A43A0F805
:10136000442070474FF6FF71818000210180C180C9
:101370004180017270470021018041808180C180DD
:10138000018141818181C1817047002101804180BB
:10139000012181800021C1800181704700210180ED
:1013A00041808180C180018141818181704700003D
:1013B000002C0140003401400004004000080040BF
:1013C000000C004021B1028842F00102028004E0DA
:1013D00002884FF6FE731A400280704731B1B0F8B0
:1013E000442042F40042A0F8442005E0B0F8442034
:1013F000C2F30E02A0F8442070471AB183890B4350
:10140000838102E083898B438381704781827047A7
:1014100041EA0203A0F8483070471AB183890B43B0
:10142000838102E083898B438381704701894FF672
:10143000F8721140018170470A46002101894FF678
:101440008F73194011430181704730B504460D4632
:1014500029462046FFF7F0FF208940F00700208151
:1014600030BD2DE9F04104460D4616461F46602D5D
:1014700006D13B46012231462046FFF75AFE05E0E1
:101480003B46012231462046FFF79DFE2946204675
:10149000FFF7D2FF208940F007002081BDE8F081EE
:1014A00030B50C4600210189C9B24FF6FF7505EA37
:1014B0000325154325432943018130BD2DE9F04122
:1014C00005460E4617469846002443463A4631469E
:1014D0002846FFF7E5FF2C894FF6F870044044F0EA
:1014E00007044FF68F70044044F070042C81BDE86F
:1014F000F081F0B504460D4616461F463B4632467F
:1015000029462046FFF7CCFF208940F48040208107
:10151000F0BD0185828270470A46002101884FF69E
:101520008F731940114301807047F0B50C46154682
:101530001E460021002200230189028B038C4FF6F6
:10154000F877394021434FF6FC473A4040F2011703
:101550003A434FF6DD773B404FF6FF7707EA061731
:101560002F433B43018102830384F0BD0A460021DF
:10157000018B4FF68F7319401143018370470A4660
:101580000021018B48F6FF7319404FF6FF7303EA01
:1015900002231943018370470A460021818B4FF6CD
:1015A0008F7319401143818370470A460021818B54
:1015B00048F6FF7319404FF6FF7303EA02231943FD
:1015C0008183704721B1028842F08002028004E0EA
:1015D00002884FF67F731A400280704721B18288DB
:1015E00042F00402828004E082884FF6FB731A40C6
:1015F0008280704721B1828842F00802828004E034
:1016000082884FF6F7731A408280704721B1828832
:1016100042F00102828004E082884FF6FE731A4095
:10162000828070470A460021018B4FF6F7731940FC
:101630001143018370470A460021018B4FF2FF736B
:1016400019404FF6FF7303EA0223194301837047E1
:101650000A460021818B4FF6F773194011438183AD
:1016600070470A460021818B4FF2FF7319404FF6F5
:10167000FF7303EA02231943818370470A4600215E
:10168000018B4FF6FB7319401143018370470A46E3
:101690000021018B4FF6FF3319404FF6FF7303EA29
:1016A00002231943018370470A460021818B4FF6BC
:1016B000FB7319401143818370470A460021818BD7
:1016C0004FF6FF3319404FF6FF7303EA0223194325
:1016D000818370470A460021018B4FF67F731940C2
:1016E0001143018370470A460021018BC1F30E01AB
:1016F0004FF6FF7303EA02231943018370470A463A
:101700000021818B4FF67F7319401143818370470D
:101710000A460021818BC1F30E014FF6FF7303EAE5
:1017200002231943818370470A460021018C4FF63A
:10173000FD7319401143018470470A460021018C52
:101740004FF6F77319401143018470470A46002190
:10175000018C4FF6DF7319404FF6FF7303EA021353
:101760001943018470470A460021018C4FF67F73AC
:1017700019404FF6FF7303EA0213194301847047BF
:101780000A460021018C4FF6FF5319404FF6FF73B4
:1017900003EA02231943018470470A460021018CA1
:1017A0004FF2FF7319404FF6FF7303EA0223194308
:1017B000018470470A460021018C4DF6FF731940E1
:1017C0004FF6FF7303EA023319430184704730B5C3
:1017D000002301248C40A3B2048C9C430484048C19
:1017E00002FA01F5ADB22C43048430BD30B50023BC
:1017F00004248C40A3B2048C9C430484048C02FA1D
:1018000001F5ADB22C43048430BD70B50346002011
:1018100000241846183001258D40ACB21D8CA5431C
:101820001D8409B1082909D100EB6100056825F084
:10183000700505600568154305600EE00D1FC5F3D2
:101840004E052844056825F4E045056005684FF617
:10185000FF7606EA02263543056070BD21B1028895
:1018600042F00202028004E002884FF6FD731A4043
:101870000280704721B1028842F00402028004E035
:1018800002884FF6FB731A400280704721B18288AC
:1018900042F08002828004E082884FF67F731A4013
:1018A0008280704702884FF6F7731A4002800288E0
:1018B0000A430280704782884FF68F731A408280F5
:1018C00082880A438280704702894FF6F8731A4073
:1018D000028102890A430281704702894FF67F73B1
:1018E0001A40028102890A4302817047818470474D
:1018F000818570478186704701877047818770476F
:10190000A0F84010704702884FF6FF431A4002804B
:1019100002880A43028070470146888E704701465C
:10192000088F70470146888F70470146B1F8400024
:1019300070470146888C70470146088D7047024603
:101940000020138A0B400BB1012000E000207047FB
:10195000CA430282704730B50246002000230024AB
:10196000158A05EA0103958905EA010413B10CB152
:10197000012000E0002030BDCA4302827047000011
:1019800010B50446FB48844209D101218803FFF7C2
:101990009FF800214FF48040FFF79AF832E0F648B4
:1019A000844209D101214804FFF79FF800214FF438
:1019B0000030FFF79AF825E0F048844209D1012170
:1019C0008804FFF792F800214FF48020FFF78DF88C
:1019D00018E0EB48844209D10121C804FFF785F8DB
:1019E00000214FF40020FFF780F80BE0E548844227
:1019F00008D101210805FFF778F800214FF4801085
:101A0000FFF773F810BD2DE9F04786B005460E4686
:101A10000024A24600BFA1460027B08900B100BF44
:101A20002F462C8A4CF6FF700440F08804432C8229
:101A3000AC894EF6F3100440B088318908437189AF
:101A400008430443AC81AC8A4FF6FF400440B089A0
:101A50000443AC8201A8FEF7B4FFC648874202D116
:101A6000DDF810A001E0DDF80CA0A88900F400402A
:101A700040B10AEBCA0000EB0A1031684900B0FB24
:101A8000F1F807E00AEBCA0000EB0A1031688900A0
:101A9000B0FBF1F86420B8FBF0F0040120096421E8
:101AA00001FB1089A88900F4004040B1322000EB0E
:101AB000C900B0FBF1F000F00700044308E0322059
:101AC00000EB09106421B0FBF1F000F00F000443BB
:101AD0002C8106B0BDE8F0874FF41651016000215B
:101AE0008180C18001810C21418100218181704769
:101AF00010B502460020108A4FF2FF0318400B88F1
:101B00004C8823438C882343CC882343184310827A
:101B100010BD0021018041808180C180704721B1CA
:101B2000828942F40052828104E082894DF6FF737B
:101B30001A4082817047F0B5034600240026002534
:101B4000002040F66A17B94200D100BF1846C1F321
:101B5000421401F01F06012707FA06F5012C01D1F6
:101B60000C3004E0022C01D1103000E014301AB126
:101B700007682F43076002E00768AF430760F0BDC6
:101B80001AB1838A0B43838202E0838A8B43838268
:101B90007047028A4FF6F0731A400282028A0A43A3
:101BA0000282704782894FF2FF731A4082818289D4
:101BB0000A438281704721B1828942F00202828108
:101BC00004E082894FF6FD731A4082817047028AD1
:101BD0004FF6DF731A400282028A0A43028270477C
:101BE00021B1028A42F48042028204E0028A4BF66A
:101BF000FF731A4002827047C1F308028280704767
:101C000001468888C0F308007047818941F00101CE
:101C100081817047028BD2B20283028B42EA012299
:101C200002837047028B02F47F420283028B0A43D5
:101C30000283704721B1828A42F02002828204E04E
:101C4000828A4FF6DF731A408282704721B1828AFE
:101C500042F01002828204E0828A4FF6EF731A404B
:101C60008282704721B1828A42F00802828204E0B7
:101C7000828A4FF6F7731A408282704721B18289B7
:101C800042F40042828103E08289C2F30E02828123
:101C9000704721B1828A42F40062828204E0828A23
:101CA0004FF2FF731A4082827047828A4FF6FB73AD
:101CB0001A408282828A0A438282704721B1828AD4
:101CC00042F00202828204E0828A4FF6FD731A40DB
:101CD0008282704702460020B1F5007F00D100BF2C
:101CE00013880B400BB1012000E00020704701F485
:101CF0000072B2F5007F00D100BFCA430280704776
:101D000070B50246002400230025002040F66A1624
:101D1000B14200D100BFC1F3421501F01F030126FB
:101D200006FA03F3012D02D19689334006E0022D15
:101D300002D1168A334001E0968A33400C12012604
:101D400006FA04F41688344013B10CB1012000E007
:101D5000002070BD10B50022002340F66A14A14295
:101D600000D100BF0A1201249440A3B2DC430480D6
:101D700010BD000000380140004400400048004011
:101D8000004C0040005000401CB512A103C9CDE931
:101D9000000100F025F840F28F71042006F047FCA6
:101DA000072269460D4800F092FC00230C221946D8
:101DB000082007F030F806F065FE642000F0FDFA18
:101DC00006F02DFE05E000F05AFA00F04BF806F0A0
:101DD00040FCF8E7AA010001C07055000044004033
:101DE00010B54FF4A060FEF7AFFA00F0A9FA4FF477
:101DF000E13000F040FB4FF4E13000F07CFB4FF4A9
:101E0000E13000F0B9FB00F013FD00F040FD00F000
:101E1000BBFC06F060FC10BD704700BFFEE700BFD2
:101E2000FEE700BFFEE700BFFEE770477047704760
:101E30007047000070B502460C46FF25FF2309E0FD
:101E400012F8010B80EA0501F148405C80EA0305C5
:101E5000F048435C201EA4F10106B4B2F0D143EA7D
:101E6000052070BD7FB500240020019002900390F2
:101E70000090E9480078092861D1002505E0E7488D
:101E8000405D01A94855681CC5B2092DF7DB00F07B
:101E900002FC9DF80400AA28EED19DF80C005528FC
:101EA000EAD1002506E001A9A81C085C0DF8050090
:101EB000681CC5B2042DF6DB04216846FFF7BAFFA3
:101EC0009DF80B209DF80A1002EB01218842D3D126
:101ED0000120D34908709DF8000001069DF801001B
:101EE00001EB00419DF8020001EB00209DF803107A
:101EF00044189DF80500012807D09DF80500022828
:101F000003D09DF8050003281AD1C648007801289F
:101F100016D140F6FA70844209DD6FF07F408442AA
:101F200005D09DF80500214600F0FDFE04E09DF877
:101F30000500002100F0F7FE0020BA49087019E101
:101F40009DF80500042807D09DF80500052803D05A
:101F50009DF80500062818D1B2484078012814D110
:101F6000FF2C09DD6FF07F40844205D09DF805000D
:101F7000214601F0DEFA04E09DF80500002101F0A1
:101F8000D8FA0020A7494870F4E09DF8050007281A
:101F90000BD09DF80500082807D09DF805000928FA
:101FA00003D09DF805000A2817D19E4880780128A3
:101FB00013D14CB16FF07F40844205D09DF80500ED
:101FC000214601F0D6FE04E09DF80500002101F055
:101FD000D0FE002093498870CCE09DF805000B28C6
:101FE0000BD09DF805000C2807D09DF805000D28A2
:101FF00003D09DF805000E2817D18A48C078012823
:1020000013D14CB16FF07F40844205D09DF805009C
:10201000214602F0FFFB04E09DF80500002102F0DC
:10202000F9FB00207F49C870A4E09DF805000F2847
:102030000BD09DF80500102807D09DF80500112849
:1020400003D09DF80500122817D1764800790128A1
:1020500013D14CB16FF07F40844205D09DF805004C
:10206000214603F04EFD04E09DF80500002103F039
:1020700048FD00206B4908717CE09DF8050013289D
:1020800007D09DF80500142803D09DF805001528F9
:1020900019D164484079012815D1B4F5000F09D051
:1020A0006FF07F40844205D09DF80500214604F082
:1020B00077FA04E09DF80500002104F071FA002091
:1020C0005849487156E09DF8050016280BD09DF838
:1020D0000500172807D09DF80500182803D09DF8A3
:1020E0000500192817D14F488079012813D14CB128
:1020F0006FF07F40844205D09DF80500214604F032
:10210000C3FB04E09DF80500002104F0BDFB0020A6
:10211000444988712EE09DF805001A280BD09DF8DF
:1021200005001B2807D09DF805001C2803D09DF84A
:1021300005001D2817D13B48C079012813D14CB1A7
:102140006FF07F40844205D09DF80500214605F0E0
:10215000CCF804E09DF80500002105F0C6F8002049
:102160003049C87106E09DF805001E2802D12046BE
:1021700006F0F8F97FBDFEB506460D462848007802
:1021800001282DD1002026490870AA208DF80400CE
:102190008DF8056028128DF80600E8B28DF807006A
:1021A000002405E001A9A01C085C0DF80400641CD3
:1021B000022CF7DB02216846FFF73CFE00128DF887
:1021C000080002216846FFF735FEC0B28DF809000D
:1021D00055208DF80A00072201A9134800F077FA6C
:1021E000FEBD70B50B4600210EE0044600EBD47531
:1021F0006D10A0EB45053035EEB2551E6D1A5E55DB
:1022000000EBD4756810491C0829EED170BD0000A0
:10221000E2980008E2990008B90E00203D33002042
:1022200068070020AB0E00200044004010B500F00D
:10223000BCFA4049087008460078012802D00228FC
:102240001AD10DE03C480078002805DD3A480078B6
:10225000401E3949087002E00720374908700CE039
:1022600035480078401C3449087008460078072833
:1022700001DD0020087000E000BF00BF10BD10B5F8
:10228000FFF7D4FF2C48007830B901210846FFF74A
:1022900072FF01202949087027480078012805D1DC
:1022A0000221FFF768FF0120244948702248007886
:1022B000022806D103210120FFF75DFF01201F49FD
:1022C00088701D480078032806D104210120FFF7FB
:1022D00052FF01201949C87017480078042806D118
:1022E00005210120FFF747FF01201449087112481A
:1022F0000078052806D106210120FFF73CFF0120C8
:102300000E4948710C480078062806D107210120A3
:10231000FFF731FF01200949887107480078072835
:1023200006D108210120FFF726FF01200349C871CB
:1023300010BD0000AA0E0020A90E0020AB0E002048
:1023400010B56FF00400FEF74EF82E4800682E49D5
:10235000B0FBF1F02D4908700846007800EB400111
:10236000C1EBC0104FF6FF7101EAC0002849088098
:1023700010BD0146254A12784A434FF0E0235A61C6
:1023800000229A611A46126942F001021A6100BFE6
:102390004FF0E022106900F001021AB100F480321F
:1023A000002AF5D04FF0E022126922F001024FF02E
:1023B000E0231A6100229A6170470146144A12888C
:1023C0004A434FF0E0235A6100229A611A4612698B
:1023D00042F001021A6100BF4FF0E022106900F0E4
:1023E00001021AB100F48032002AF5D04FF0E02249
:1023F000126922F001024FF0E0231A6100229A6173
:10240000704700000000002000127A00B40E002087
:10241000B60E002008B525208DF8000001208DF8AB
:10242000010002208DF8020001208DF803006846AB
:10243000FDF78FFF08BD08B526208DF800000120AC
:102440008DF801008DF802008DF803006846FDF755
:1024500080FF08BD08B527208DF8000001208DF809
:10246000010003208DF8020001208DF8030068466A
:10247000FDF76FFF08BD10B586B00446012144F298
:102480000400FEF70BFB4FF40070ADF814001820A9
:102490008DF8170003208DF8160005A9B148FEF746
:1024A00021F84FF48060ADF8140048208DF8170033
:1024B00005A9AC48FEF716F801940020ADF8080015
:1024C000ADF80A00ADF80C00ADF810000C20ADF826
:1024D0000E0001A9A448FFF796FAFFF79BFF01221F
:1024E00040F22551A048FFF726FB01219E48FFF747
:1024F00016FB06B010BD10B586B0044601210420BD
:10250000FEF7CCFA01214804FEF7D5FA0420ADF815
:10251000140018208DF8170003208DF8160005A967
:102520009048FDF7DFFF0820ADF8140004208DF877
:10253000170005A98B48FDF7D5FF01940020ADF8E1
:102540000800ADF80A00ADF80C00ADF810000C2042
:10255000ADF80E0001A98548FFF755FAFFF76BFFAC
:10256000012240F225518148FFF7E5FA01217F4819
:10257000FFF7D5FA06B010BD10B586B004460121AC
:102580000820FEF78BFA01218804FEF794FA4FF435
:102590008060ADF8140018208DF8170003208DF826
:1025A000160005A97248FDF79DFF4FF40060ADF8D5
:1025B000140004208DF8170005A96D48FDF792FF5F
:1025C00001940020ADF80800ADF80A00ADF80C0049
:1025D000ADF810000C20ADF80E0001A96548FFF71A
:1025E00012FAFFF737FF012240F225516148FFF749
:1025F000A2FA01215F48FFF792FA06B010BD10B5AC
:1026000040F225515848FFF77BFB20B140F225519D
:102610005548FFF79FFB10BD10B5002440F225512F
:102620005248FFF76DFBD8B15048FFF7E9FAC4B242
:102630005148007809280EDA4F4800780020B0F59C
:10264000004F08D04D484C49097844544A48007816
:10265000401C4949087040F225514448FFF77AFB75
:1026600010BD10B540F225514248FFF749FB20B19B
:1026700040F225513F48FFF76DFB10BD002004E0FC
:1026800000213F4A1154411C88B20928F8DB00217F
:102690003C4A11707047002004E00021374A115471
:1026A000411C88B20928F8DB0021334A11707047B9
:1026B00070B504460D4629462046FFF79DFA00BF37
:1026C00080212046FFF706FB0028F9D070BD2DE9D8
:1026D000F04107460D461646002405E0295D3846C0
:1026E000FFF7E6FF601CC4B2B442F7DB00BF402135
:1026F0003846FFF7EFFA0028F9D0BDE8F08170B551
:1027000006460C46002500BF615D3046FFF7D0FF4E
:102710006D1C605D0028F7D100BF40213046FFF7F7
:10272000D9FA0028F9D070BD2DE9F04105460C46D4
:10273000260AE7B231462846FFF75EFA00BF80213D
:102740002846FFF7C7FA0028F9D039462846FFF790
:1027500053FA00BF80212846FFF7BCFA0028F9D0C1
:10276000BDE8F0810008014000380140004400400D
:10277000000C014000480040B90E00203D3300200D
:1027800034330020B80E002008B501210C20FEF7DC
:1027900085F94FF44070ADF8000048208DF8030033
:1027A00069462048FDF79EFE08BD10B51E4800781A
:1027B00028B34FF400711B48FDF727FF28B14FF4F1
:1027C00080711848FDF721FFC8B90020164908702C
:1027D0000B20FFF7F2FD4FF400711248FDF715FFD3
:1027E00018B901201149087010BD4FF480710D48CF
:1027F000FDF70BFF90B902200C490870F4E74FF485
:1028000000710848FDF701FF012807D101020548C2
:10281000FDF7FBFE012801D10349087000200349A0
:102820000870E1E7000C0140FB150020FA150020BC
:102830001FB501210846FEF73EF940F2E730ADF83A
:10284000080040F2CF20ADF804000020ADF80A00E7
:10285000ADF8060001A94FF08040FEF757FA1C20A2
:102860008DF8000000208DF801008DF80200012095
:102870008DF803006846FDF76CFD012211469007B4
:10288000FEF7BBFD01218807FEF79CFD1FBD1FB5AC
:1028900001210220FEF70FF942F20F70ADF8080097
:1028A00041F61F40ADF804000020ADF80A00ADF875
:1028B000060001A91B48FEF729FA1D208DF800002B
:1028C00001208DF8010000208DF8020001208DF814
:1028D00003006846FDF73DFD012211461148FEF751
:1028E0008CFD01210F48FEF76DFD1FBD10B50121C4
:1028F0008807FFF730F828B101218807FFF73CF877
:1029000006F0F0FB10BD10B501210648FFF723F8D3
:1029100030B101210348FFF72FF801200249087068
:1029200010BD0000000400403C1D002010B504460E
:10293000082C49D2DFE804F0044992D7FDFCFBFAE9
:102940000021052006F05BF80221052006F057F86B
:102950001821052006F053F80121062006F04FF853
:102960000321062006F04BF80121072006F047F866
:102970000221072006F043F80021012006F02FF87D
:102980000021032006F02BF80121002006F027F893
:102990000021042006F023F80121042006F01FF88E
:1029A0000221042006F01BF80321042006F017F88A
:1029B0000021072006F013F80321072006F00FF886
:1029C0001821072006F00BF8ABE10021042006F0E7
:1029D00016F80321042006F012F80021052006F065
:1029E0000EF80321062006F00AF81821062006F04A
:1029F00006F80021072006F002F80321072005F061
:102A0000FEFF1821072005F0FAFF0021012005F044
:102A1000E6FF0021032005F0E2FF0121002005F080
:102A2000DEFF0121042005F0DAFF0221042005F079
:102A3000D6FF0221052005F0D2FF1821052005F060
:102A4000CEFF0121062005F0CAFF0121072005F075
:102A5000C6FF0221072005F0C2FF62E10121042028
:102A600005F0CDFF0221042005F0C9FF1821042044
:102A700005F0C5FF0221052005F0C1FF1821052042
:102A800005F0BDFF0121062005F0B9FF002101205E
:102A900005F0A5FF0021032005F0A1FF0121002082
:102AA00005F09DFF0321042005F099FF002105207A
:102AB00005F095FF0321062005F091FF182106205F
:102AC00005F08DFF0021072005F089FF0121072077
:102AD00005F085FF0221072005F081FF0321072073
:102AE00005F07DFF1DE11821032005F088FF182166
:102AF000062005F084FF0021012005F070FF002171
:102B0000032005F06CFF0121002005F068FF032180
:102B1000042005F064FF1821042005F060FF002167
:102B2000052005F05CFF0321062003E0BCE086E001
:102B300048E012E005F053FF0021072005F04FFFA9
:102B40000121072005F04BFF0221072005F047FF78
:102B50000321072005F043FFE3E01821042005F0DE
:102B60004EFF0121022005F04AFF0021012005F05F
:102B700036FF0021032005F032FF0121002005F07F
:102B80002EFF0021072005F02AFF0121072005F074
:102B900026FF0221072005F022FF0321072005F070
:102BA0001EFF0321062005F01AFF0021052005F075
:102BB00016FF0321042005F012FF1821032005F061
:102BC0000EFFAEE00321072005F019FF02210720C8
:102BD00005F015FF0121072005F011FF0021072056
:102BE00005F00DFF0321062005F009FF0021052057
:102BF00005F005FF0221042005F001FF012104205A
:102C000005F0FDFE0321042005F0F9FE1821032044
:102C100005F0F5FE1821002005F0F1FE012100204D
:102C200005F0DDFE0021012005F0D9FE0021032082
:102C300005F0D5FE0121022005F0D1FE71E0012151
:102C4000022005F0DCFE0021012005F0C8FE002175
:102C5000032005F0C4FE0121002005F0C0FE032181
:102C6000072005F0BCFE0221072005F0B8FE012177
:102C7000072005F0B4FE0321062005F0B0FE002178
:102C8000052005F0ACFE0321042005F0A8FE02217A
:102C9000042005F0A4FE0121042005F0A0FE182167
:102CA000002005F09CFE3CE01821002005F0A7FE66
:102CB0000021072005F0A3FE0021042005F09FFE5F
:102CC0001821072005F09BFE0021012005F087FE5A
:102CD0000021032005F083FE0121002005F07FFE86
:102CE0000321072005F07BFE0221072005F077FE77
:102CF0000121072005F073FE0321062005F06FFE79
:102D00000021052005F06BFE0321042005F067FE7D
:102D10000221042005F063FE0121042005F05FFE7E
:102D200000BF00BF10BD2DE9F04105460C46002252
:102D30000C21104605F0C8FD01220C21002005F0F1
:102D4000C3FD00220E21104605F0BEFD01220E211A
:102D5000002005F0B9FD204606F03FFC07464FF085
:102D60008C4106F01BFB0646012D04D0022D7DD0C0
:102D7000032D7CD193E2FE49304606F0A5FC4CD2EF
:102D8000FC49304606F0D8FA074606F03CFC0446FB
:102D90004FF47A7094FBF0F0C7B2012310220021A7
:102DA000384605F098FE642094FBF0F0642190FB17
:102DB000F1F201FB12000A2190FBF1F201FB12007B
:102DC000C7B2012312220021384606F024F80A2057
:102DD00094FBF0F0642190FBF1F201FB12000A2158
:102DE00090FBF1F201FB1200C7B201231422002173
:102DF000384605F070FE642094FBF0F100FB1140B2
:102E00000A2190FBF1F201FB1200C7B20123162246
:102E10000021384605F05FFEF3E0D749304606F062
:102E200053FC4FD2D449304606F086FA074606F0E6
:102E3000EAFB04464FF47A7094FBF0F0C7B201232A
:102E400010220021384605F046FE642094FBF0F085
:102E5000642190FBF1F201FB12000A2190FBF1F2D8
:102E600001FB1200C7B20123122201E0CAE015E201
:102E70000021384605F02FFE0A2094FBF0F0642173
:102E800090FBF1F201FB12000A2190FBF1F201FB31
:102E90001200C7B2012314220021384605F0BBFFFF
:102EA000642094FBF0F100FB11400A2190FBF1F249
:102EB00001FB1200C7B2012316220021384605F09B
:102EC0000AFE9EE0AB49304606F0FEFB4CD2A84914
:102ED000304606F031FA074606F095FB04464FF4FB
:102EE0007A7094FBF0F0C7B201231022002138461B
:102EF00005F0F1FD642094FBF0F0642190FBF1F209
:102F000001FB12000A2190FBF1F201FB1200C7B293
:102F1000012312220021384605F0DDFD0A2094FB32
:102F2000F0F0642190FBF1F201FB12000A2190FB0A
:102F3000F1F201FB1200C7B201231422002138462E
:102F400005F0C9FD642094FBF0F100FB11400A215B
:102F500090FBF1F201FB1200C7B2012316220021FF
:102F6000384605F058FF4CE08449304606F0ACFB8B
:102F700047D2304606F047FB04464FF47A7094FB84
:102F8000F0F0C7B2012310220021384605F0A3FD5E
:102F9000642094FBF0F0642190FBF1F201FB12003D
:102FA0000A2190FBF1F201FB1200C7B201231222A9
:102FB0000021384605F08FFD0A2094FBF0F06421D3
:102FC00090FBF1F201FB12000A2190FBF1F201FBF0
:102FD0001200C7B2012314220021384605F07BFD00
:102FE000642094FBF0F100FB11400A2190FBF1F208
:102FF00001FB1200C7B2012316220021384605F05A
:103000006AFD90E25A49304606F05EFB4CD25949BF
:10301000304606F091F9074606F0F5FA04464FF4FB
:103020007A7094FBF0F0C7B200231022194638469C
:1030300005F051FD642094FBF0F0642190FBF1F267
:1030400001FB12000A2190FBF1F201FB1200C7B252
:10305000002312221946384605F0DDFE0A2094FBB3
:10306000F0F0642190FBF1F201FB12000A2190FBC9
:10307000F1F201FB1200C7B20023142219463846B0
:1030800005F029FD642094FBF0F100FB11400A21BA
:1030900090FBF1F201FB1200C7B200231622194681
:1030A000384605F018FDF9E03349304606F00CFBD0
:1030B0004CD23149304606F03FF9074606F0A3FAF4
:1030C00004464FF47A7094FBF0F0C7B2002310224C
:1030D0001946384605F0FFFC642094FBF0F06421AB
:1030E00090FBF1F201FB12000A2190FBF1F201FBCF
:1030F0001200C7B2002312221946384605F0EBFC35
:103100000A2094FBF0F0642190FBF1F201FB120025
:103110000A2190FBF1F201FB1200C7B20023142236
:103120001946384605F077FE642094FBF0F100FB69
:1031300011400A2190FBF1F201FB1200C7B20023FB
:1031400016221946384605F0C6FCA7E00949304664
:1031500006F0BAFA55D20649304606F0EDF80746B1
:1031600006F051FA04464FF47A7094FBF0F007E051
:103170000000204100007A440000C84200401C4684
:10318000C7B2002310221946384605F0A4FC64207B
:1031900094FBF0F0642190FBF1F201FB12000A2194
:1031A00090FBF1F201FB1200C7B200231222194674
:1031B000384605F090FC0A2094FBF0F0642190FB67
:1031C000F1F201FB12000A2190FBF1F201FB120067
:1031D000C7B2002314221946384605F07CFC64204F
:1031E00094FBF0F100FB11400A2190FBF1F201FB8E
:1031F0001200C7B2002316221946384605F00BFE0E
:103200004CE0FE49304606F05FFA47D2304606F001
:10321000FAF904464FF47A7094FBF0F0C7B2002339
:1032200010221946384605F056FC642094FBF0F055
:10323000642190FBF1F201FB12000A2190FBF1F2F4
:1032400001FB1200C7B2002312221946384605F0CE
:1032500042FC0A2094FBF0F0642190FBF1F201FBA8
:1032600012000A2190FBF1F201FB1200C7B2002309
:1032700014221946384605F02EFC642094FBF0F128
:1032800000FB11400A2190FBF1F201FB1200C7B2D2
:10329000002316221946384605F01DFC43E1D849A3
:1032A000304606F011FA4CD2D649304606F044F8C2
:1032B000074606F0A8F904464FF47A7094FBF0F044
:1032C000C7B2002304220121384605F004FC642023
:1032D00094FBF0F0642190FBF1F201FB12000A2153
:1032E00090FBF1F201FB1200C7B20023062201217C
:1032F000384605F090FD0A2094FBF0F0642190FB25
:10330000F1F201FB12000A2190FBF1F201FB120025
:10331000C7B2002308220121384605F0DCFB6420F7
:1033200094FBF0F100FB11400A2190FBF1F201FB4C
:103330001200C7B200230A460121384605F0CBFB34
:10334000F0E0B149304606F0BFF94CD2AE49304604
:1033500005F0F2FF074606F056F904464FF47A707E
:1033600094FBF0F0C7B2002304220121384605F097
:10337000B2FB642094FBF0F0642190FBF1F201FBBE
:1033800012000A2190FBF1F201FB1200C7B20023E8
:1033900006220121384605F09EFB0A2094FBF0F03E
:1033A000642190FBF1F201FB12000A2190FBF1F283
:1033B00001FB1200C7B2002308220121384605F0A4
:1033C0002AFD642094FBF0F100FB11400A2190FBE0
:1033D000F1F201FB1200C7B200230A460121384670
:1033E00005F079FB9EE08749304606F06DF94CD236
:1033F0008349304605F0A0FF074606F004F904466D
:103400004FF47A7094FBF0F0C7B20023042201213C
:10341000384605F060FB642094FBF0F0642190FBDB
:10342000F1F201FB12000A2190FBF1F201FB120004
:10343000C7B2002306220121384605F04CFB0A20C2
:1034400094FBF0F0642190FBF1F201FB12000A21E1
:1034500090FBF1F201FB1200C7B200230822012108
:10346000384605F038FB642094FBF0F100FB114076
:103470000A2190FBF1F201FB1200C7B200230A46B9
:103480000121384605F0C7FC4CE05C49304606F0A7
:103490001BF947D2304606F0B6F804464FF47A706E
:1034A00094FBF0F0C7B2002304220121384605F056
:1034B00012FB642094FBF0F0642190FBF1F201FB1D
:1034C00012000A2190FBF1F201FB1200C7B20023A7
:1034D00006220121384605F0FEFA0A2094FBF0F09E
:1034E000642190FBF1F201FB12000A2190FBF1F242
:1034F00001FB1200C7B2002308220121384605F063
:10350000EAFA642094FBF0F100FB11400A2190FBE1
:10351000F1F201FB1200C7B200230A46012138462E
:1035200005F079FC00BF00BF0020FFF7FFF9BDE800
:10353000F0812DE9F84F81460C4600220C211046FF
:1035400005F0C2F901220C21002005F0BDF900228E
:103550000E21104605F0B8F901220E21002005F0D9
:10356000B3F9204606F039F84FF08C41009005F091
:1035700015FF834606F079F807464FF03332234BA8
:1035800005F0BCFF054606F083F88246B9F1040F4A
:1035900006D0B9F1050F7DD0B9F1060F7BD19EE2BF
:1035A0001749504606F090F857D21649504605F094
:1035B000C3FE054606F027F804464FF47A7094FBE4
:1035C000F0F0C5B2012310220021284605F083FA4D
:1035D000642094FBF0F0642190FBF1F201FB1200F7
:1035E0000A2190FBF1F201FB1200C5B20123122265
:1035F0000021284605F00FFC0A2009E000401C4687
:103600000000204100007A440000C84233330340E8
:1036100094FBF0F0642190FBF1F201FB12000A210F
:1036200090FBF1F201FB1200C5B20123142200212C
:10363000284605F050FA642094FBF0F100FB11409D
:103640000A2190FBF1F201FB1200C5B20123162200
:103650000021284605F03FFAF3E0FE49504606F007
:1036600033F84FD2FB49504605F066FE054605F09B
:10367000CAFF04464FF47A7094FBF0F0C5B2012300
:1036800010220021284605F026FA642094FBF0F071
:10369000642101E0D6E021E290FBF1F201FB12008F
:1036A0000A2190FBF1F201FB1200C5B201231222A4
:1036B0000021284605F00FFA0A2094FBF0F064215F
:1036C00090FBF1F201FB12000A2190FBF1F201FBE9
:1036D0001200C5B2012314220021284605F09BFBED
:1036E000642094FBF0F100FB11400A2190FBF1F201
:1036F00001FB1200C5B2012316220021284605F065
:10370000EAF99EE0D449504605F0DEFF4CD2D34999
:10371000504605F011FE054605F075FF04464FF4CE
:103720007A7094FBF0F0C5B20123102200212846E4
:1037300005F0D1F9642094FBF0F0642190FBF1F2E4
:1037400001FB12000A2190FBF1F201FB1200C5B24D
:10375000012312220021284605F0BDF90A2094FB1E
:10376000F0F0642190FBF1F201FB12000A2190FBC2
:10377000F1F201FB1200C5B20123142200212846F8
:1037800005F0A9F9642094FBF0F100FB11400A2137
:1037900090FBF1F201FB1200C5B2012316220021B9
:1037A000284605F038FB4CE0AD49504605F08CFF4B
:1037B00047D2504605F027FF04464FF47A7094FB39
:1037C000F0F0C5B2012310220021284605F083F94C
:1037D000642094FBF0F0642190FBF1F201FB1200F5
:1037E0000A2190FBF1F201FB1200C5B20123122263
:1037F0000021284605F06FF90A2094FBF0F06421BF
:1038000090FBF1F201FB12000A2190FBF1F201FBA7
:103810001200C5B2012314220021284605F05BF9ED
:10382000642094FBF0F100FB11400A2190FBF1F2BF
:1038300001FB1200C5B2012316220021284605F023
:103840004AF990E28549504605F03EFF4CD2824944
:10385000504605F071FD054605F0D5FE04464FF4CF
:103860007A7094FBF0F0C5B2002310221946284666
:1038700005F031F9642094FBF0F0642190FBF1F243
:1038800001FB12000A2190FBF1F201FB1200C5B20C
:10389000002312221946284605F0BDFA0A2094FB9F
:1038A000F0F0642190FBF1F201FB12000A2190FB81
:1038B000F1F201FB1200C5B200231422194628467A
:1038C00005F009F9642094FBF0F100FB11400A2196
:1038D00090FBF1F201FB1200C5B20023162219463B
:1038E000284605F0F8F8F9E05A49504605F0ECFE94
:1038F0004CD25849504605F01FFD054605F083FEA1
:1039000004464FF47A7094FBF0F0C5B20023102205
:103910001946284605F0DFF8642094FBF0F0642196
:1039200090FBF1F201FB12000A2190FBF1F201FB86
:103930001200C5B2002312221946284605F0CBF822
:103940000A2094FBF0F0642190FBF1F201FB1200DD
:103950000A2190FBF1F201FB1200C5B200231422F0
:103960001946284605F057FA642094FBF0F100FB55
:1039700011400A2190FBF1F201FB1200C5B20023B5
:1039800016221946284605F0A6F8A7E03249504607
:1039900005F09AFE4CD23149504605F0CDFC054663
:1039A00005F031FE04464FF47A7094FBF0F0C5B296
:1039B000002310221946284605F08DF8642094FB58
:1039C000F0F0642190FBF1F201FB12000A2190FB60
:1039D000F1F201FB1200C5B200231222194628465B
:1039E00005F079F80A2094FBF0F0642190FBF1F2E5
:1039F00001FB12000A2190FBF1F201FB1200C5B29B
:103A0000002314221946284605F065F8642094FB2B
:103A1000F0F100FB11400A2190FBF1F201FB1200D2
:103A2000C5B2002316221946284605F0F4F955E0E0
:103A30000B49504605F048FE50D2504605F0E3FDD4
:103A400004464FF47A7094FBF0F0C5B200231022C4
:103A5000194607E00000C84200007A4400002041F7
:103A600000401C46284605F036F8642094FBF0F030
:103A7000642190FBF1F201FB12000A2190FBF1F2AC
:103A800001FB1200C5B2002312221946284605F098
:103A900022F80A2094FBF0F0642190FBF1F201FB84
:103AA00012000A2190FBF1F201FB1200C5B20023C3
:103AB00014221946284605F00EF8642094FBF0F114
:103AC00000FB11400A2190FBF1F201FB1200C5B28C
:103AD000002316221946284604F0FDFF43E1FE4963
:103AE000504605F0F1FD4CD2FC49504605F024FC4F
:103AF000054605F088FD04464FF47A7094FBF0F01B
:103B0000C5B2002304220121284604F0E4FF64200A
:103B100094FBF0F0642190FBF1F201FB12000A210A
:103B200090FBF1F201FB1200C5B200230622012135
:103B3000284605F070F90A2094FBF0F0642190FB10
:103B4000F1F201FB12000A2190FBF1F201FB1200DD
:103B5000C5B2002308220121284604F0BCFF6420DE
:103B600094FBF0F100FB11400A2190FBF1F201FB04
:103B70001200C5B200230A460121284604F0ABFF1B
:103B8000F0E0D749504605F09FFD4CD2D44950464D
:103B900005F0D2FB054605F036FD04464FF47A7079
:103BA00094FBF0F0C5B2002304220121284604F062
:103BB00092FF642094FBF0F0642190FBF1F201FB92
:103BC00012000A2190FBF1F201FB1200C5B20023A2
:103BD00006220121284604F07EFF0A2094FBF0F023
:103BE000642190FBF1F201FB12000A2190FBF1F23B
:103BF00001FB1200C5B2002308220121284605F06E
:103C00000AF9642094FBF0F100FB11400A2190FBBB
:103C1000F1F201FB1200C5B200230A460121284639
:103C200004F059FF9EE0AD49504605F04DFD4CD2E1
:103C3000A949504605F080FB054605F0E4FC044622
:103C40004FF47A7094FBF0F0C5B2002304220121F6
:103C5000284604F040FF642094FBF0F0642190FBC0
:103C6000F1F201FB12000A2190FBF1F201FB1200BC
:103C7000C5B2002306220121284604F02CFF0A20A9
:103C800094FBF0F0642190FBF1F201FB12000A2199
:103C900090FBF1F201FB1200C5B2002308220121C2
:103CA000284604F018FF642094FBF0F100FB11405B
:103CB0000A2190FBF1F201FB1200C5B200230A4673
:103CC0000121284605F0A7F84CE08649504605F04A
:103CD000FBFC47D2504605F096FC04464FF47A7040
:103CE00094FBF0F0C5B2002304220121284604F021
:103CF000F2FE642094FBF0F0642190FBF1F201FBF2
:103D000012000A2190FBF1F201FB1200C5B2002360
:103D100006220121284604F0DEFE0A2094FBF0F082
:103D2000642190FBF1F201FB12000A2190FBF1F2F9
:103D300001FB1200C5B2002308220121284604F02D
:103D4000CAFE642094FBF0F100FB11400A2190FBB5
:103D5000F1F201FB1200C5B200230A4601212846F8
:103D600004F0B9FE00BF00BF0120FEF7DFFDBDE893
:103D7000F88F2DE9F05F81460C46B4F5000F01DDA8
:103D8000A4F18074204605F028FC834605F06DFC04
:103D90000746554A554B05F03FFB054605F078FCB4
:103DA00082464E49504605F0F9FA8246B9F1070FAE
:103DB00009D0B9F1080F7CD0B9F1090F7AD0B9F167
:103DC0000A0F78D1D4E34449504605F07DFC4CD22B
:103DD0004249504605F0B0FA054605F014FC044689
:103DE0004FF47A7094FBF0F0C5B201231022002149
:103DF000284604F070FE642094FBF0F0642190FBF0
:103E0000F1F201FB12000A2190FBF1F201FB12001A
:103E1000C5B2012312220021284604F0FCFF0A202B
:103E200094FBF0F0642190FBF1F201FB12000A21F7
:103E300090FBF1F201FB1200C5B201231422002114
:103E4000284604F048FE642094FBF0F100FB11408A
:103E50000A2190FBF1F201FB1200C5B201231622E8
:103E60000021284604F037FEFCE01D49504605F0CD
:103E70002BFC5DD21A49504605F05EFA054605F066
:103E8000C2FB04464FF47A7094FBF0F0C5B20123F4
:103E900010220021284604F01EFE642094FBF0F05E
:103EA000642190FBF1F201FB12000A2190FBF1F278
:103EB00002E0D8E016E214E201FB1200C5B20123D1
:103EC00012220021284604F006FE0A2094FBF0F09E
:103ED000642190FBF1F20BE00000204100007A44E5
:103EE0000000C84200401C46BA490C022B87963F8E
:103EF00001FB12000A2190FBF1F201FB1200C5B296
:103F0000012314220021284604F085FF642094FB3D
:103F1000F0F100FB11400A2190FBF1F201FB1200CD
:103F2000C5B2012316220021284604F0D4FD99E0F1
:103F3000FE49504605F0C8FB4CD2FD49504605F0FD
:103F4000FBF9054605F05FFB04464FF47A7094FBDD
:103F5000F0F0C5B2012310220021284604F0BBFD79
:103F6000642094FBF0F0642190FBF1F201FB12005D
:103F70000A2190FBF1F201FB1200C5B201231222CB
:103F80000021284604F0A7FD0A2094FBF0F06421EC
:103F900090FBF1F201FB12000A2190FBF1F201FB10
:103FA0001200C5B2012314220021284604F093FD1B
:103FB000642094FBF0F100FB11400A2190FBF1F228
:103FC00001FB1200C5B2012316220021284604F08D
:103FD00022FF47E0504605F016FB04464FF47A7086
:103FE00094FBF0F0C5B2012310220021284604F012
:103FF00072FD642094FBF0F0642190FBF1F201FB70
:1040000012000A2190FBF1F201FB1200C5B201235C
:1040100012220021284604F05EFD0A2094FBF0F0F5
:10402000642190FBF1F201FB12000A2190FBF1F2F6
:1040300001FB1200C5B2012314220021284604F01E
:104040004AFD642094FBF0F100FB11400A2190FB33
:10405000F1F201FB1200C5B201231622002128460D
:1040600004F039FDD0E3B249504605F02DFB4CD2A7
:10407000AE49504605F060F9054605F0C4FA04461D
:104080004FF47A7094FBF0F0C5B200231022194669
:10409000284604F020FD642094FBF0F0642190FB9E
:1040A000F1F201FB12000A2190FBF1F201FB120078
:1040B000C5B2002312221946284604F0ACFE0A209D
:1040C00094FBF0F0642190FBF1F201FB12000A2155
:1040D00090FBF1F201FB1200C5B200231422194635
:1040E000284604F0F8FC642094FBF0F100FB11403A
:1040F0000A2190FBF1F201FB1200C5B20023162247
:104100001946284604F0E7FCEBE08A49504605F0E2
:10411000DBFA4CD28749504605F00EF9054605F00A
:1041200072FA04464FF47A7094FBF0F0C5B20023A3
:1041300010221946284604F0CEFC642094FBF0F0CF
:10414000642190FBF1F201FB12000A2190FBF1F2D5
:1041500001FB1200C5B2002312221946284604F0C2
:10416000BAFC0A2094FBF0F0642190FBF1F201FB11
:1041700012000A2190FBF1F201FB1200C5B20023EC
:1041800014221946284604F046FE642094FBF0F100
:1041900000FB11400A2190FBF1F201FB1200C5B2B5
:1041A000002316221946284604F095FC99E05F4941
:1041B000504605F089FA4CD25D49504605F0BCF8EE
:1041C000054605F020FA04464FF47A7094FBF0F0AF
:1041D000C5B2002310221946284604F07CFC642056
:1041E00094FBF0F0642190FBF1F201FB12000A2134
:1041F00090FBF1F201FB1200C5B200231222194616
:10420000284604F068FC0A2094FBF0F0642190FB3F
:10421000F1F201FB12000A2190FBF1F201FB120006
:10422000C5B2002314221946284604F054FC642029
:1042300094FBF0F100FB11400A2190FBF1F201FB2D
:104240001200C5B2002316221946284604F0E3FDE9
:1042500047E0504605F0D7F904464FF47A7094FBD6
:10426000F0F0C5B2002310221946284604F033FCB2
:10427000642094FBF0F0642190FBF1F201FB12004A
:104280000A2190FBF1F201FB1200C5B200231222B9
:104290001946284604F01FFC0A2094FBF0F0642124
:1042A00090FBF1F201FB12000A2190FBF1F201FBFD
:1042B0001200C5B2002314221946284604F00BFC54
:1042C000642094FBF0F100FB11400A2190FBF1F215
:1042D00001FB1200C5B2002316221946284604F03D
:1042E000FAFB91E21249504605F0EEF953D20F491C
:1042F000504605F021F8054605F085F904464FF4CF
:104300007A7094FBF0F0C5B2002304220121284604
:1043100004F0E1FB642094FBF0F0642190FBF1F2E7
:1043200001FB12000A2190FBF1F205E000007A4443
:10433000000020410000C84201FB1200C5B200236A
:1043400006220121284604F066FD0A2094FBF0F0C5
:10435000642190FBF1F201FB12000A2190FBF1F2C3
:1043600001FB1200C5B2002308220121284604F0F7
:10437000B2FB642094FBF0F100FB11400A2190FB9A
:10438000F1F201FB1200C5B200230A4601212846C2
:1043900004F0A1FBEBE0FE49504605F095F94CD244
:1043A000FB49504604F0C8FF054605F02CF90446C9
:1043B0004FF47A7094FBF0F0C5B20023042201217F
:1043C000284604F088FB642094FBF0F0642190FB05
:1043D000F1F201FB12000A2190FBF1F201FB120045
:1043E000C5B2002306220121284604F074FB0A20EE
:1043F00094FBF0F0642190FBF1F201FB12000A2122
:1044000090FBF1F201FB1200C5B20023082201214A
:10441000284604F000FD642094FBF0F100FB1140FD
:104420000A2190FBF1F201FB1200C5B200230A46FB
:104430000121284604F04FFB99E0D649504605F08B
:1044400043F94CD2D349504604F076FF054605F0B7
:10445000DAF804464FF47A7094FBF0F0C5B200230A
:1044600004220121284604F036FB642094FBF0F07E
:10447000642190FBF1F201FB12000A2190FBF1F2A2
:1044800001FB1200C5B2002306220121284604F0D8
:1044900022FB0A2094FBF0F0642190FBF1F201FB77
:1044A00012000A2190FBF1F201FB1200C5B20023B9
:1044B00008220121284604F00EFB642094FBF0F151
:1044C00000FB11400A2190FBF1F201FB1200C5B282
:1044D00000230A460121284604F09DFC47E050468F
:1044E00005F091F804464FF47A7094FBF0F0C5B2F1
:1044F000002304220121284604F0EDFA642094FBF5
:10450000F0F0642190FBF1F201FB12000A2190FB14
:10451000F1F201FB1200C5B2002306220121284658
:1045200004F0D9FA0A2094FBF0F0642190FBF1F238
:1045300001FB12000A2190FBF1F201FB1200C5B24F
:10454000002308220121284604F0C5FA642094FBC8
:10455000F0F100FB11400A2190FBF1F201FB120087
:10456000C5B200230A460121284604F0B4FA4BE103
:104570004FF08041504604F0DFFE824685495046A8
:1045800005F0A2F84CD28449504604F0D5FE054609
:1045900005F039F804464FF47A7094FBF0F0C5B298
:1045A00001230C220221284604F035FC642094FBF0
:1045B000F0F0642190FBF1F201FB12000A2190FB64
:1045C000F1F201FB1200C5B201230E22022128469E
:1045D00004F081FA0A2094FBF0F0642190FBF1F2E0
:1045E00001FB12000A2190FBF1F201FB1200C5B29F
:1045F00000230E220321284604F06DFA642094FB68
:10460000F0F100FB11400A2190FBF1F201FB1200D6
:10461000C5B200230C220321284604F05CFAF2E024
:104620005B49504605F050F84CD25949504604F0C9
:1046300083FE054604F0E7FF04464FF47A7094FBCE
:10464000F0F0C5B201230C220221284604F043FAFF
:10465000642094FBF0F0642190FBF1F201FB120066
:104660000A2190FBF1F201FB1200C5B201230E22D8
:104670000221284604F0CFFB0A2094FBF0F06421CD
:1046800090FBF1F201FB12000A2190FBF1F201FB19
:104690001200C5B200230E220321284604F01BFAA3
:1046A000642094FBF0F100FB11400A2190FBF1F231
:1046B00001FB1200C5B200230C220321284604F09E
:1046C0000AFAA0E03449504604F0FEFF4CD23149CA
:1046D000504604F063FE054604F095FF04464FF48F
:1046E0007A7094FBF0F0C5B201230C220221284617
:1046F00004F0F1F9642094FBF0F0642190FBF1F2F6
:1047000001FB12000A2190FBF1F201FB1200C5B27D
:1047100001230E220221284604F0DDF90A2094FB31
:10472000F0F0642190FBF1F201FB12000A2190FBF2
:10473000F1F201FB1200C5B200230E22032128462C
:1047400004F069FB642094FBF0F100FB11400A21A6
:1047500090FBF1F201FB1200C5B200230C220321F1
:10476000284604F0B8F94EE0504604F04CFF0446E9
:104770004FF47A7094FBF0F0C5B201230C220221B1
:10478000284604F0A8F9642094FBF0F0642105E0C9
:104790000000C8420000204100007A4490FBF1F282
:1047A00001FB12000A2190FBF1F201FB1200C5B2DD
:1047B00001230E220221284604F08DF90A2094FBE1
:1047C000F0F0642190FBF1F201FB12000A2190FB52
:1047D000F1F201FB1200C5B200230E22032128468C
:1047E00004F079F9642094FBF0F100FB11400A21F8
:1047F00090FBF1F201FB1200C5B200230C22032151
:10480000284604F068F900BF00BF0220FEF78EF8CA
:10481000BDE8F09F03B587B00898B0F5000F03DD41
:104820000898A0F180700890089804F0D6FE0190D6
:1048300004F01BFFFD4AFE4BCDE9020104F0ECFD44
:10484000CDE9040104F024FF0690FA49069804F02B
:10485000A5FD06900021069804F036FF06D20698C2
:1048600080F0004006900120F349087007980B285B
:1048700007D00C287ED00D287DD00E2841F03B813A
:10488000F6E3ED480078012876D1EC49069804F06B
:104890001BFF49D2EA49069804F04EFD059004F04A
:1048A000B2FE08900123102200212D2004F013F9FC
:1048B0006421089890FBF1F090FBF1F201FB1200EB
:1048C0000A2190FBF1F201FB1200C0B20123122277
:1048D0000021059004F0FFF80A21089890FBF1F000
:1048E000642190FBF1F201FB12000A2190FBF1F22E
:1048F00001FB1200C0B2012314220021059004F034
:104900008AFA6421089890FBF1F201FB12000A2157
:1049100090FBF1F201FB1200C0B20123162200212C
:10492000059004F0D8F89CE0C549069804F0CCFE48
:104930004DD2C249069804F0FFFC059004F063FED6
:1049400008900123102200212D2004F0C4F86421D6
:10495000089890FBF1F090FBF1F201FB12000A21A4
:1049600090FBF1F201FB1200C0B2012312220021E0
:10497000059002E0D6E1FDE377E004F0ACF80A210F
:10498000089890FBF1F0642190FBF1F201FB12001A
:104990000A2190FBF1F201FB1200C0B201231422A4
:1049A0000021059004F097F86421089890FBF1F23B
:1049B00001FB12000A2190FBF1F201FB1200C0B2D0
:1049C000012316220021059004F025FA49E09949B7
:1049D000069804F079FE44D2069804F014FE08907C
:1049E0000123102200212D2004F075F8642108987D
:1049F00090FBF1F090FBF1F201FB12000A2190FB19
:104A0000F1F201FB1200C0B2012312220021059035
:104A100004F061F80A21089890FBF1F0642190FB02
:104A2000F1F201FB12000A2190FBF1F201FB1200EE
:104A3000C0B2012314220021059004F04CF8642137
:104A4000089890FBF1F201FB12000A2190FBF1F2B1
:104A500001FB1200C0B2012316220021059004F0D0
:104A60003AF80020744908705BE17449069804F034
:104A70002BFE4FD26F49069804F05EFC059004F0BF
:104A8000C2FD08904FF47A71089890FBF1F0C0B223
:104A9000012310220021059004F01DF864210898DC
:104AA00090FBF1F090FBF1F201FB12000A2190FB68
:104AB000F1F201FB1200C0B2012312220021059085
:104AC00004F0A9F90A21089890FBF1F0642190FB09
:104AD000F1F201FB12000A2190FBF1F201FB12003E
:104AE000C0B2012314220021059003F0F4FF6421D9
:104AF000089890FBF1F201FB12000A2190FBF1F201
:104B000001FB1200C0B2012316220021059003F020
:104B1000E2FF06E14A49069804F0D6FD4FD2484923
:104B2000069804F009FC059004F06DFD08904FF420
:104B30007A71089890FBF1F0C0B201231022002195
:104B4000059003F0C8FF6421089890FBF1F090FBFA
:104B5000F1F201FB12000A2190FBF1F201FB1200BD
:104B6000C0B2012312220021059003F0B4FF0A21F4
:104B7000089890FBF1F0642190FBF1F201FB120028
:104B80000A2190FBF1F201FB1200C0B201231422B2
:104B90000021059004F03FF96421089890FBF1F2A0
:104BA00001FB12000A2190FBF1F201FB1200C0B2DE
:104BB000012316220021059003F08DFFB1E01D496D
:104BC000069804F081FD5CD21C49069804F0B4FB01
:104BD000059004F018FD08904FF47A71089890FB46
:104BE000F1F0C0B2012310220021059003F073FF01
:104BF0006421089890FBF1F090FBF1F201FB1200A8
:104C00000A2190FBF1F201FB1200C0B20123122233
:104C10000021059003F05FFF0A21089890FBF1F056
:104C2000642190FBF1F201FB12000BE0BA490C0287
:104C30002B87963F00007A447D240020000020410D
:104C40000000C8420A2190FBF1F201FB1200C0B241
:104C5000012314220021059003F03DFF64210898F0
:104C600090FBF1F201FB12000A2190FBF1F201FB33
:104C70001200C0B2012316220021059004F0CBF8E7
:104C80004FE0F649069804F01FFD4AD2069804F05A
:104C9000BAFC08904FF47A71089890FBF1F0C0B21A
:104CA000012310220021059003F015FF64210898CC
:104CB00090FBF1F090FBF1F201FB12000A2190FB56
:104CC000F1F201FB1200C0B2012312220021059073
:104CD00003F001FF0A21089890FBF1F0642190FB9A
:104CE000F1F201FB12000A2190FBF1F201FB12002C
:104CF000C0B2012314220021059003F0ECFE6421D0
:104D0000089890FBF1F201FB12000A2190FBF1F2EE
:104D100001FB1200C0B2012316220021059004F00D
:104D20007AF8F4E3CE48007801287DD1CD49069881
:104D300004F0CAFC49D2CC49069804F0FDFA05906B
:104D400004F061FC08900023102219462D2003F086
:104D5000C2FE6421089890FBF1F090FBF1F201FB98
:104D600012000A2190FBF1F201FB1200C0B20023F5
:104D700012221946059003F0AEFE0A21089890FB16
:104D8000F1F0642190FBF1F201FB12000A2190FB8B
:104D9000F1F201FB1200C0B2002314221946059063
:104DA00004F039F86421089890FBF1F201FB12003D
:104DB0000A2190FBF1F201FB1200C0B2002316227F
:104DC0001946059003F087FE9AE0A749069804F07B
:104DD0007BFC4BD2A349069804F0AEFA059004F090
:104DE00012FC08900023102219462D2003F073FEB8
:104DF0006421089890FBF1F090FBF1F201FB1200A6
:104E00000A2190FBF1F201FB1200C0B20023122232
:104E10001946059003F05FFE0A21089890FBF1F017
:104E2000642190FBF1F200E06EE001FB12000A2128
:104E300090FBF1F201FB1200C0B2002314221946CC
:104E4000059003F048FE6421089890FBF1F201FB05
:104E500012000A2190FBF1F201FB1200C0B2002304
:104E600016221946059003F0D6FF49E07F490698BF
:104E700004F02AFC44D2069804F0C5FB08900023F5
:104E8000102219462D2003F026FE6421089890FB7D
:104E9000F1F090FBF1F201FB12000A2190FBF1F21C
:104EA00001FB1200C0B2002312221946059003F044
:104EB00012FE0A21089890FBF1F0642190FBF1F2B8
:104EC00001FB12000A2190FBF1F201FB1200C0B2BB
:104ED000002314221946059003F0FDFD6421089873
:104EE00090FBF1F201FB12000A2190FBF1F201FBB1
:104EF0001200C0B2002316221946059003F0EBFD04
:104F00000020574908705BE15649069804F0DCFB25
:104F10004FD25649069804F00FFA059004F073FB3F
:104F200008904FF47A71089890FBF1F0C0B200231A
:104F300010221946059003F0CEFD6421089890FBDD
:104F4000F1F090FBF1F201FB12000A2190FBF1F26B
:104F500001FB1200C0B2002312221946059003F093
:104F60005AFF0A21089890FBF1F0642190FBF1F2BE
:104F700001FB12000A2190FBF1F201FB1200C0B20A
:104F8000002314221946059003F0A5FD642108981A
:104F900090FBF1F201FB12000A2190FBF1F201FB00
:104FA0001200C0B2002316221946059003F093FDAB
:104FB00006E12D49069804F087FB5AD22A49069843
:104FC00004F0BAF9059004F01EFB08904FF47A71D2
:104FD000089890FBF1F0C0B200231022194605900A
:104FE00003F079FD6421089890FBF1F090FBF1F259
:104FF00001FB12000A2190FBF1F201FB1200C0B28A
:10500000002312221946059003F065FD0A21089835
:1050100090FBF1F0642190FBF1F201FB12000A21F8
:1050200090FBF1F201FB1200C0B2002314221946DA
:10503000059003F0F0FE6421089890FBF1F201FB6B
:1050400012000A2190FBF1F201FB1200C0B2002312
:1050500016221946059003F03EFDB1E000401C46C3
:105060007D240020000020410000C84200007A4456
:10507000F4E2F749069804F027FB4FD2F549069869
:1050800004F05AF9059004F0BEFA08904FF47A71D2
:10509000089890FBF1F0C0B2002310221946059049
:1050A00003F019FD6421089890FBF1F090FBF1F2F8
:1050B00001FB12000A2190FBF1F201FB1200C0B2C9
:1050C000002312221946059003F005FD0A210898D5
:1050D00090FBF1F0642190FBF1F201FB12000A2138
:1050E00090FBF1F201FB1200C0B20023142219461A
:1050F000059003F0F0FC6421089890FBF1F201FBAD
:1051000012000A2190FBF1F201FB1200C0B2002351
:1051100016221946059003F07EFE51E0CE4906980E
:1051200004F0D2FA4CD2069804F06DFA08904FF4CD
:105130007A71089890FBF1F0C0B200231022194652
:10514000059003F0C8FC6421089890FBF1F090FBF7
:10515000F1F201FB12000A2190FBF1F201FB1200B7
:10516000C0B2002312221946059003F0B4FC0A21B4
:10517000089800E025E090FBF1F0642190FBF1F24B
:1051800001FB12000A2190FBF1F201FB1200C0B2F8
:10519000002314221946059003F09DFC6421089811
:1051A00090FBF1F201FB12000A2190FBF1F201FBEE
:1051B0001200C0B2002316221946059003F02BFE00
:1051C000AFE5A648007801287DD1A249069804F0F1
:1051D0007BFA49D2A249069804F0AEF8059004F093
:1051E00012FA08900023042201212D2003F073FC01
:1051F0006421089890FBF1F090FBF1F201FB1200A2
:105200000A2190FBF1F201FB1200C0B2002306223A
:105210000121059003F05FFC0A21089890FBF1F052
:10522000642190FBF1F201FB12000A2190FBF1F2E4
:1052300001FB1200C0B2002308220121059003F0F7
:10524000EAFD6421089890FBF1F201FB12000A21AB
:1052500090FBF1F201FB1200C0B200230A460121CB
:10526000059003F038FC9AE07D49069804F02CFA8A
:105270004BD27849069804F05FF8059004F0C3F922
:1052800008900023042201212D2003F024FC642136
:10529000089890FBF1F090FBF1F201FB12000A215B
:1052A00090FBF1F201FB1200C0B2002306220121A3
:1052B000059003F010FC0A21089890FBF1F064219E
:1052C00090FBF1F200E06EE001FB12000A2190FB7E
:1052D000F1F201FB1200C0B2002308220121059067
:1052E00003F0F9FB6421089890FBF1F201FB120036
:1052F0000A2190FBF1F201FB1200C0B200230A4622
:105300000121059003F087FD49E05149069804F01A
:10531000DBF944D2069804F076F9089000230422C1
:1053200001212D2003F0D7FB6421089890FBF1F0B8
:1053300090FBF1F201FB12000A2190FBF1F201FB5C
:105340001200C0B2002306220121059003F0C3FB26
:105350000A21089890FBF1F0642190FBF1F201FB27
:1053600012000A2190FBF1F201FB1200C0B20023EF
:1053700008220121059003F0AEFB6421089890FB00
:10538000F1F201FB12000A2190FBF1F201FB120085
:10539000C0B200230A460121059003F09CFB0020C7
:1053A0002E49087059E12B49069804F08DF959D21D
:1053B0002749069803F0C0FF059004F024F90890EF
:1053C0004FF47A71089890FBF1F0C0B200230422E8
:1053D0000121059003F07FFB6421089890FBF1F018
:1053E00090FBF1F201FB12000A2190FBF1F201FBAC
:1053F0001200C0B2002306220121059003F00BFD2C
:105400000A21089890FBF1F0642190FBF1F201FB76
:1054100012000A2190FBF1F201FB1200C0B200233E
:1054200008220121059003F056FB6421089890FBA7
:10543000F1F201FB12000A2190FBF1F201FB1200D4
:10544000C0B200230A460121059003F044FB04E1A9
:1054500000007A440000204100401C467D240020CA
:105460000000C842F949069804F02EF950D2F749D5
:10547000069803F061FF059004F0C5F808904FF41A
:105480007A71089890FBF1F0C0B200230422012148
:10549000059003F020FB6421089890FBF1F090FB4D
:1054A000F1F201FB12000A2190FBF1F201FB120064
:1054B000C0B2002306220121059003F00CFB0A2153
:1054C000089890FBF1F0642190FBF1F201FB1200CF
:1054D0000A2190FBF1F201FB1200C0B20023082266
:1054E0000121059003F097FC6421089890FBF1F2EC
:1054F00001FB12000A2190FBF1F201FB1200C0B285
:1055000000230A460121059003F0E5FAA5E0F2E246
:10551000CF49069804F0D8F84FD2CE49069803F048
:105520000BFF059004F06FF808904FF47A7108981B
:1055300090FBF1F0C0B2002304220121059003F09A
:10554000CAFA6421089890FBF1F090FBF1F201FB9C
:1055500012000A2190FBF1F201FB1200C0B20023FD
:1055600006220121059003F0B6FA0A21089890FB63
:10557000F1F0642190FBF1F201FB12000A2190FB93
:10558000F1F201FB1200C0B20023082201210590B4
:1055900003F0A1FA6421089890FBF1F201FB1200DC
:1055A0000A2190FBF1F201FB1200C0B200230A466F
:1055B0000121059003F02FFC4FE0A749069804F065
:1055C00083F84AD2069804F01EF808904FF47A71D6
:1055D000089890FBF1F0C0B200230422012105904D
:1055E00003F079FA6421089890FBF1F090FBF1F256
:1055F00001FB12000A2190FBF1F201FB1200C0B284
:10560000002306220121059003F065FA0A2108987B
:1056100090FBF1F0642190FBF1F201FB12000A21F2
:1056200090FBF1F201FB1200C0B20023082201211D
:10563000059003F050FA6421089890FBF1F201FB09
:1056400012000A2190FBF1F201FB1200C0B200230C
:105650000A460121059003F0DEFB4CE24FF0804149
:10566000069803F069FE06907C48007801287DD1F9
:105670007849069804F028F849D27449069803F04E
:105680005BFE059003F0BFFF089001230C2202216E
:105690002D2003F020FA6421089890FBF1F090FB94
:1056A000F1F201FB12000A2190FBF1F201FB120062
:1056B000C0B201230E220221059003F0ACFB0A21A7
:1056C000089890FBF1F0642190FBF1F201FB1200CD
:1056D0000A2190FBF1F201FB1200C0B200230E225E
:1056E0000321059003F0F7F96421089890FBF1F28B
:1056F00001FB12000A2190FBF1F201FB1200C0B283
:1057000000230C220321059003F0E5F99AE04F49AC
:10571000069803F0D9FF4BD24E49069803F00CFED1
:10572000059003F070FF089001230C2202212D2028
:1057300003F0D1F96421089890FBF1F090FBF1F2AD
:1057400001FB12000A2190FBF1F201FB1200C0B232
:1057500001230E220221059003F0BDF90A210898C9
:1057600090FBF1F0642190FBF1F200E078E001FBA6
:1057700012000A2190FBF1F201FB1200C0B20023DB
:105780000E220321059003F046FB6421089890FB4C
:10579000F1F201FB12000A2190FBF1F201FB120071
:1057A000C0B200230C220321059003F094F949E0D4
:1057B0002749069803F088FF44D2069803F023FF98
:1057C000089001230C2202212D2003F084F964218A
:1057D000089890FBF1F090FBF1F201FB12000A2116
:1057E00090FBF1F201FB1200C0B201230E22022154
:1057F000059003F070F90A21089890FBF1F06421FC
:1058000090FBF1F201FB12000A2190FBF1F201FB87
:105810001200C0B200230E220321059003F05BF9B1
:105820006421089890FBF1F201FB12000A2190FB21
:10583000F1F201FB1200C0B200230C2203210590FB
:1058400003F049F900200549087053E10000C842FF
:1058500000007A440000204100401C467D240020C6
:10586000FE49069803F030FF4FD2FD49069803F039
:1058700063FD059003F0C7FE08904FF47A71089815
:1058800090FBF1F0C0B201230C220221059003F03D
:10589000C2FA6421089890FBF1F090FBF1F201FB51
:1058A00012000A2190FBF1F201FB1200C0B20123A9
:1058B0000E220221059003F00EF90A21089890FBB0
:1058C000F1F0642190FBF1F201FB12000A2190FB40
:1058D000F1F201FB1200C0B200230E220321059059
:1058E00003F0F9F86421089890FBF1F201FB120033
:1058F0000A2190FBF1F201FB1200C0B200230C223E
:105900000321059003F0E7F8F4E0D649069803F088
:10591000DBFE4FD2D349069803F00EFD059003F04D
:1059200072FE08904FF47A71089890FBF1F0C0B2C3
:1059300001230C220221059003F0CDF86421089880
:1059400090FBF1F090FBF1F201FB12000A2190FBB9
:10595000F1F201FB1200C0B201230E2202210590D8
:1059600003F059FA0A21089890FBF1F0642190FBAA
:10597000F1F201FB12000A2190FBF1F201FB12008F
:10598000C0B200230E220321059003F0A4F8642185
:10599000089890FBF1F201FB12000A2190FBF1F252
:1059A00001FB1200C0B200230C220321059003F07A
:1059B00092F89FE0AA49069803F086FE4FD2A749C5
:1059C000069803F0B9FC059003F01DFE08904FF413
:1059D0007A71089890FBF1F0C0B201230C220221E9
:1059E000059003F078F86421089890FBF1F090FBA3
:1059F000F1F201FB12000A2190FBF1F201FB12000F
:105A0000C0B201230E220221059003F064F80A219E
:105A1000089890FBF1F0642190FBF1F201FB120079
:105A20000A2190FBF1F201FB1200C0B200230E220A
:105A30000321059003F0EFF96421089890FBF1F23F
:105A400001FB12000A2190FBF1F201FB1200C0B22F
:105A500000230C220321059003F03DF84AE006984C
:105A600003F0D1FD08904FF47A71089890FBF1F0A3
:105A7000C0B201230C220221059003F02CF864210E
:105A8000089890FBF1F090FBF1F201FB12000A2163
:105A900090FBF1F201FB1200C0B201230E220221A1
:105AA000059003F018F80A21089890FBF1F06421A2
:105AB00090FBF1F201FB12000A2190FBF1F201FBD5
:105AC0001200C0B200230E220321059003F003F858
:105AD0006421089890FBF1F201FB12000A2190FB6F
